{"abi":[{"type":"constructor","inputs":[{"name":"_submissionFee","type":"uint256","internalType":"uint256"},{"name":"_operatorRegistry","type":"address","internalType":"address"},{"name":"_automataDcapAttestation","type":"address","internalType":"address"}],"stateMutability":"nonpayable"},{"type":"function","name":"automataDcapAttestation","inputs":[],"outputs":[{"name":"","type":"address","internalType":"contract AutomataDcapAttestation"}],"stateMutability":"view"},{"type":"function","name":"getTask","inputs":[{"name":"_taskId","type":"uint256","internalType":"uint256"}],"outputs":[{"name":"task","type":"tuple","internalType":"struct TaskRegistry.Task","components":[{"name":"claim","type":"string","internalType":"string"},{"name":"operator","type":"address","internalType":"address"},{"name":"verificationResult","type":"uint8","internalType":"enum TaskRegistry.ClaimVerificationResult"}]}],"stateMutability":"view"},{"type":"function","name":"operatorRegistry","inputs":[],"outputs":[{"name":"","type":"address","internalType":"contract OperatorRegistry"}],"stateMutability":"view"},{"type":"function","name":"submissionFee","inputs":[],"outputs":[{"name":"","type":"uint256","internalType":"uint256"}],"stateMutability":"view"},{"type":"function","name":"submitTask","inputs":[{"name":"_claim","type":"string","internalType":"string"}],"outputs":[],"stateMutability":"payable"},{"type":"function","name":"submitVerificationResult","inputs":[{"name":"_taskId","type":"uint256","internalType":"uint256"},{"name":"_verificationResult","type":"uint8","internalType":"enum TaskRegistry.ClaimVerificationResult"},{"name":"_teeRaQuote","type":"bytes","internalType":"bytes"}],"outputs":[],"stateMutability":"nonpayable"},{"type":"function","name":"taskCount","inputs":[],"outputs":[{"name":"","type":"uint256","internalType":"uint256"}],"stateMutability":"view"},{"type":"function","name":"tasks","inputs":[{"name":"","type":"uint256","internalType":"uint256"}],"outputs":[{"name":"claim","type":"string","internalType":"string"},{"name":"operator","type":"address","internalType":"address"},{"name":"verificationResult","type":"uint8","internalType":"enum TaskRegistry.ClaimVerificationResult"}],"stateMutability":"view"},{"type":"event","name":"TaskSubmitted","inputs":[{"name":"taskId","type":"uint256","indexed":true,"internalType":"uint256"},{"name":"operator","type":"address","indexed":true,"internalType":"address"},{"name":"claim","type":"string","indexed":false,"internalType":"string"}],"anonymous":false},{"type":"event","name":"TaskUpdated","inputs":[{"name":"taskId","type":"uint256","indexed":true,"internalType":"uint256"},{"name":"operator","type":"address","indexed":true,"internalType":"address"},{"name":"verificationResult","type":"uint8","indexed":false,"internalType":"enum TaskRegistry.ClaimVerificationResult"}],"anonymous":false}],"bytecode":{"object":"0x608034609457601f610ec838819003918201601f19168301916001600160401b03831184841017609957808492606094604052833981010312609457805160516040604b6020850160af565b930160af565b600080546001600160a01b039485166001600160a01b031991821617825560029390935560035560018054919093169116179055604051610e0590816100c38239f35b600080fd5b634e487b7160e01b600052604160045260246000fd5b51906001600160a01b038216820360945756fe6080604052600436101561001257600080fd5b60003560e01c806301cb3f4d146106605780631d65e77e1461057e57806336383dc71461055557806358c2225b1461052c5780638d977672146104bf5780639a7b22b9146100b5578063b6cb58a5146100975763e88889421461007457600080fd5b34610092576000366003190112610092576020600254604051908152f35b600080fd5b34610092576000366003190112610092576020600354604051908152f35b60203660031901126100925760043567ffffffffffffffff81116100925736602382011215610092576100f2903690602481600401359101610bc4565b600254341061047a5760005460405163e99e912960e01b81524360048201526001600160a01b0390911690602081602481855afa90811561046e57600091610424575b5063ffffffff169182156103d357602060009360246040518095819363120d832d60e21b8352420660048301525afa9182156103c8578392610380575b50600354906040519261018484610b54565b8184526001600160a01b0316602080850182815260408087018881528689526004909352872095518051939691939067ffffffffffffffff821161036c576101cc8354610c50565b601f8111610327575b50602090601f83116001146102c15760019392918a91836102b6575b5050600019600383901b1c191690831b1781555b019160018060a01b039051166bffffffffffffffffffffffff60a01b835416178255519060068210156102a2579061023c91610d84565b600354600019811461028e577f9989978868daa22b7a8a054a31e686ab83a420750a2a60b58facca87bf7c12199160016102889201600355604051918291602083526020830190610c1e565b0390a380f35b634e487b7160e01b85526011600452602485fd5b634e487b7160e01b86526021600452602486fd5b015190508a806101f1565b838a52818a209190601f1984168b5b81811061030f57509160019594929183879593106102f6575b505050811b018155610205565b015160001960f88460031b161c191690558a80806102e9565b929360206001819287860151815501950193016102d0565b838a5260208a20601f840160051c81019160208510610362575b601f0160051c01905b81811061035757506101d5565b8a815560010161034a565b9091508190610341565b634e487b7160e01b89526041600452602489fd5b9091506020813d6020116103c0575b8161039c60209383610b86565b810103126103bc57516001600160a01b03811681036103bc579083610172565b8280fd5b3d915061038f565b6040513d85823e3d90fd5b60405162461bcd60e51b8152602060048201526024808201527f5461736b52656769737472793a206e6f206f70657261746f727320617661696c60448201526361626c6560e01b6064820152608490fd5b6020813d602011610466575b8161043d60209383610b86565b8101031261046257519063ffffffff8216820361045f575063ffffffff610135565b80fd5b5080fd5b3d9150610430565b6040513d6000823e3d90fd5b60405162461bcd60e51b815260206004820152601e60248201527f5461736b52656769737472793a20696e73756666696369656e742066656500006044820152606490fd5b34610092576020366003190112610092576004356000526004602052610508604060002060016104ee82610c8a565b910154610528604051938493606085526060850190610c1e565b6001600160a01b038316602085015291604084019060a01c60ff16610c43565b0390f35b34610092576000366003190112610092576000546040516001600160a01b039091168152602090f35b34610092576000366003190112610092576001546040516001600160a01b039091168152602090f35b34610092576020366003190112610092576004356000604080516105a181610b54565b6060815282602082015201526105ba6003548210610d2e565b600052600460205260406000206001604051916105d683610b54565b6105df81610c8a565b835201546001600160a01b0381166020830190815260408301929160a01c60ff16600681101561064a57836105289161062f95526040519485946020865251606060208701526080860190610c1e565b92516001600160a01b03166040850152516060840190610c43565b634e487b7160e01b600052602160045260246000fd5b346100925760603660031901126100925760043560243560068110156100925760443567ffffffffffffffff81116100925736602382011215610092576106b1903690602481600401359101610bc4565b916106bf6003548210610d2e565b80600052600460205260ff60016040600020015460a01c16600681101561064a57610b03576000928215610aa257818452600460205260408420600101546001600160a01b03163303610a3757835460405163ddca670b60e01b81523360048201529190602090839060249082906001600160a01b03165afa918215610a2c5785926109f4575b50600154604051631c6c240560e11b81526020600482015290869082906001600160a01b0316818061077b6024820188610c1e565b03915afa9081156109e95786908792610954575b501561092c57506040516107a4606082610b86565b60308152602081019160403684376102085b61023881106108dd575050519020036108985780835260046020526107e18260016040862001610d84565b82808080600254335af13d15610893573d6107fb81610ba8565b906108096040519283610b86565b81528460203d92013e5b1561084e576108256040518093610c43565b7fdaee2e78b6a73bdd07a1cd057c4a5a7a4d5656cca958c65b23a38bd7cf38e53860203393a380f35b60405162461bcd60e51b815260206004820152601c60248201527f5461736b52656769737472793a207061796d656e74206661696c6564000000006044820152606490fd5b610813565b60405162461bcd60e51b815260206004820152601c60248201527f5461736b52656769737472793a2052544d5233206d69736d61746368000000006044820152606490fd5b6001600160f81b03196108f08284610da8565b5161020719830191168282116109185790610911600193928b1a9186610da8565b53016107b6565b634e487b7160e01b8a52601160045260248afd5b60405162461bcd60e51b815260206004820152908190610950906024830190610c1e565b0390fd5b9150503d8087833e6109668183610b86565b8101906040818303126109e55780519081151582036109e15760208101519067ffffffffffffffff82116109dd570182601f820112156109e15780516109ab81610ba8565b936109b96040519586610b86565b818552602082840101116109dd576109d79160208086019101610bfb565b8761078f565b8880fd5b8780fd5b8680fd5b6040513d88823e3d90fd5b9091506020813d602011610a24575b81610a1060209383610b86565b81010312610a2057519085610746565b8480fd5b3d9150610a03565b6040513d87823e3d90fd5b60405162461bcd60e51b815260206004820152603a60248201527f5461736b52656769737472793a206f6e6c79206f70657261746f722063616e2060448201527f7375626d697420766572696669636174696f6e20726573756c740000000000006064820152608490fd5b60405162461bcd60e51b815260206004820152603360248201527f5461736b52656769737472793a20766572696669636174696f6e20726573756c604482015272742063616e6e6f742062652050454e44494e4760681b6064820152608490fd5b60405162461bcd60e51b815260206004820152602360248201527f5461736b52656769737472793a207461736b20616c72656164792076657269666044820152621a595960ea1b6064820152608490fd5b6060810190811067ffffffffffffffff821117610b7057604052565b634e487b7160e01b600052604160045260246000fd5b90601f8019910116810190811067ffffffffffffffff821117610b7057604052565b67ffffffffffffffff8111610b7057601f01601f191660200190565b929192610bd082610ba8565b91610bde6040519384610b86565b829481845281830111610092578281602093846000960137010152565b60005b838110610c0e5750506000910152565b8181015183820152602001610bfe565b90602091610c3781518092818552858086019101610bfb565b601f01601f1916010190565b90600682101561064a5752565b90600182811c92168015610c80575b6020831014610c6a57565b634e487b7160e01b600052602260045260246000fd5b91607f1691610c5f565b9060405191826000825492610c9e84610c50565b8084529360018116908115610d0c5750600114610cc5575b50610cc392500383610b86565b565b90506000929192526020600020906000915b818310610cf0575050906020610cc39282010138610cb6565b6020919350806001915483858901015201910190918492610cd7565b905060209250610cc394915060ff191682840152151560051b82010138610cb6565b15610d3557565b60405162461bcd60e51b815260206004820152602160248201527f5461736b52656769737472793a207461736b20646f6573206e6f7420657869736044820152601d60fa1b6064820152608490fd5b90600681101561064a57815460ff60a01b191660a09190911b60ff60a01b16179055565b908151811015610db9570160200190565b634e487b7160e01b600052603260045260246000fdfea2646970667358221220df18a5c6389194f134568c532b886d31e01503a74e60ecea11c7fb9f21430d8264736f6c634300081b0033","linkReferences":{}},"methodIdentifiers":{"automataDcapAttestation()":"36383dc7","getTask(uint256)":"1d65e77e","operatorRegistry()":"58c2225b","submissionFee()":"e8888942","submitTask(string)":"9a7b22b9","submitVerificationResult(uint256,uint8,bytes)":"01cb3f4d","taskCount()":"b6cb58a5","tasks(uint256)":"8d977672"},"id":69}